{
  "_format": "hh-sol-artifact-1",
  "contractName": "NFT_Digital_Warranty",
  "sourceName": "contracts/NFT_Digital_Warranty.sol",
  "abi": [
    {
      "inputs": [],
      "stateMutability": "nonpayable",
      "type": "constructor"
    },
    {
      "anonymous": false,
      "inputs": [
        {
          "indexed": true,
          "internalType": "address",
          "name": "owner",
          "type": "address"
        },
        {
          "indexed": true,
          "internalType": "address",
          "name": "approved",
          "type": "address"
        },
        {
          "indexed": true,
          "internalType": "uint256",
          "name": "tokenId",
          "type": "uint256"
        }
      ],
      "name": "Approval",
      "type": "event"
    },
    {
      "anonymous": false,
      "inputs": [
        {
          "indexed": true,
          "internalType": "address",
          "name": "owner",
          "type": "address"
        },
        {
          "indexed": true,
          "internalType": "address",
          "name": "operator",
          "type": "address"
        },
        {
          "indexed": false,
          "internalType": "bool",
          "name": "approved",
          "type": "bool"
        }
      ],
      "name": "ApprovalForAll",
      "type": "event"
    },
    {
      "anonymous": false,
      "inputs": [
        {
          "indexed": true,
          "internalType": "uint256",
          "name": "tokenId",
          "type": "uint256"
        },
        {
          "indexed": false,
          "internalType": "address",
          "name": "owner",
          "type": "address"
        },
        {
          "indexed": false,
          "internalType": "address",
          "name": "seller",
          "type": "address"
        },
        {
          "indexed": false,
          "internalType": "uint256",
          "name": "expiry",
          "type": "uint256"
        },
        {
          "indexed": false,
          "internalType": "string",
          "name": "serialNo",
          "type": "string"
        }
      ],
      "name": "TokenListedSuccess",
      "type": "event"
    },
    {
      "anonymous": false,
      "inputs": [
        {
          "indexed": true,
          "internalType": "address",
          "name": "from",
          "type": "address"
        },
        {
          "indexed": true,
          "internalType": "address",
          "name": "to",
          "type": "address"
        },
        {
          "indexed": true,
          "internalType": "uint256",
          "name": "tokenId",
          "type": "uint256"
        }
      ],
      "name": "Transfer",
      "type": "event"
    },
    {
      "inputs": [
        {
          "internalType": "uint256",
          "name": "tokenId",
          "type": "uint256"
        }
      ],
      "name": "BurnNFT",
      "outputs": [],
      "stateMutability": "payable",
      "type": "function"
    },
    {
      "inputs": [
        {
          "internalType": "address",
          "name": "to",
          "type": "address"
        },
        {
          "internalType": "uint256",
          "name": "tokenId",
          "type": "uint256"
        }
      ],
      "name": "approve",
      "outputs": [],
      "stateMutability": "nonpayable",
      "type": "function"
    },
    {
      "inputs": [
        {
          "internalType": "address",
          "name": "owner",
          "type": "address"
        }
      ],
      "name": "balanceOf",
      "outputs": [
        {
          "internalType": "uint256",
          "name": "",
          "type": "uint256"
        }
      ],
      "stateMutability": "view",
      "type": "function"
    },
    {
      "inputs": [
        {
          "internalType": "string",
          "name": "tokenURI",
          "type": "string"
        },
        {
          "internalType": "string",
          "name": "serialNo",
          "type": "string"
        }
      ],
      "name": "createToken",
      "outputs": [
        {
          "internalType": "uint256",
          "name": "",
          "type": "uint256"
        }
      ],
      "stateMutability": "payable",
      "type": "function"
    },
    {
      "inputs": [
        {
          "internalType": "uint256",
          "name": "tokenId",
          "type": "uint256"
        },
        {
          "internalType": "uint256",
          "name": "expTime",
          "type": "uint256"
        }
      ],
      "name": "executeSale",
      "outputs": [],
      "stateMutability": "payable",
      "type": "function"
    },
    {
      "inputs": [
        {
          "internalType": "uint256",
          "name": "tokenId",
          "type": "uint256"
        }
      ],
      "name": "getApproved",
      "outputs": [
        {
          "internalType": "address",
          "name": "",
          "type": "address"
        }
      ],
      "stateMutability": "view",
      "type": "function"
    },
    {
      "inputs": [],
      "name": "getCurrentToken",
      "outputs": [
        {
          "internalType": "uint256",
          "name": "",
          "type": "uint256"
        }
      ],
      "stateMutability": "view",
      "type": "function"
    },
    {
      "inputs": [],
      "name": "getLatestIdToListedToken",
      "outputs": [
        {
          "components": [
            {
              "internalType": "uint256",
              "name": "tokenId",
              "type": "uint256"
            },
            {
              "internalType": "address payable",
              "name": "owner",
              "type": "address"
            },
            {
              "internalType": "address payable",
              "name": "seller",
              "type": "address"
            },
            {
              "internalType": "uint256",
              "name": "expiry",
              "type": "uint256"
            },
            {
              "internalType": "string",
              "name": "serialNo",
              "type": "string"
            }
          ],
          "internalType": "struct NFT_Digital_Warranty.ListedToken",
          "name": "",
          "type": "tuple"
        }
      ],
      "stateMutability": "view",
      "type": "function"
    },
    {
      "inputs": [
        {
          "internalType": "uint256",
          "name": "tokenId",
          "type": "uint256"
        }
      ],
      "name": "getListedTokenForId",
      "outputs": [
        {
          "components": [
            {
              "internalType": "uint256",
              "name": "tokenId",
              "type": "uint256"
            },
            {
              "internalType": "address payable",
              "name": "owner",
              "type": "address"
            },
            {
              "internalType": "address payable",
              "name": "seller",
              "type": "address"
            },
            {
              "internalType": "uint256",
              "name": "expiry",
              "type": "uint256"
            },
            {
              "internalType": "string",
              "name": "serialNo",
              "type": "string"
            }
          ],
          "internalType": "struct NFT_Digital_Warranty.ListedToken",
          "name": "",
          "type": "tuple"
        }
      ],
      "stateMutability": "view",
      "type": "function"
    },
    {
      "inputs": [],
      "name": "getMyNFTs",
      "outputs": [
        {
          "components": [
            {
              "internalType": "uint256",
              "name": "tokenId",
              "type": "uint256"
            },
            {
              "internalType": "address payable",
              "name": "owner",
              "type": "address"
            },
            {
              "internalType": "address payable",
              "name": "seller",
              "type": "address"
            },
            {
              "internalType": "uint256",
              "name": "expiry",
              "type": "uint256"
            },
            {
              "internalType": "string",
              "name": "serialNo",
              "type": "string"
            }
          ],
          "internalType": "struct NFT_Digital_Warranty.ListedToken[]",
          "name": "",
          "type": "tuple[]"
        }
      ],
      "stateMutability": "view",
      "type": "function"
    },
    {
      "inputs": [
        {
          "internalType": "address",
          "name": "owner",
          "type": "address"
        },
        {
          "internalType": "address",
          "name": "operator",
          "type": "address"
        }
      ],
      "name": "isApprovedForAll",
      "outputs": [
        {
          "internalType": "bool",
          "name": "",
          "type": "bool"
        }
      ],
      "stateMutability": "view",
      "type": "function"
    },
    {
      "inputs": [],
      "name": "name",
      "outputs": [
        {
          "internalType": "string",
          "name": "",
          "type": "string"
        }
      ],
      "stateMutability": "view",
      "type": "function"
    },
    {
      "inputs": [
        {
          "internalType": "uint256",
          "name": "tokenId",
          "type": "uint256"
        }
      ],
      "name": "ownerOf",
      "outputs": [
        {
          "internalType": "address",
          "name": "",
          "type": "address"
        }
      ],
      "stateMutability": "view",
      "type": "function"
    },
    {
      "inputs": [
        {
          "internalType": "address",
          "name": "from",
          "type": "address"
        },
        {
          "internalType": "address",
          "name": "to",
          "type": "address"
        },
        {
          "internalType": "uint256",
          "name": "tokenId",
          "type": "uint256"
        }
      ],
      "name": "safeTransferFrom",
      "outputs": [],
      "stateMutability": "nonpayable",
      "type": "function"
    },
    {
      "inputs": [
        {
          "internalType": "address",
          "name": "from",
          "type": "address"
        },
        {
          "internalType": "address",
          "name": "to",
          "type": "address"
        },
        {
          "internalType": "uint256",
          "name": "tokenId",
          "type": "uint256"
        },
        {
          "internalType": "bytes",
          "name": "data",
          "type": "bytes"
        }
      ],
      "name": "safeTransferFrom",
      "outputs": [],
      "stateMutability": "nonpayable",
      "type": "function"
    },
    {
      "inputs": [
        {
          "internalType": "address",
          "name": "operator",
          "type": "address"
        },
        {
          "internalType": "bool",
          "name": "approved",
          "type": "bool"
        }
      ],
      "name": "setApprovalForAll",
      "outputs": [],
      "stateMutability": "nonpayable",
      "type": "function"
    },
    {
      "inputs": [
        {
          "internalType": "bytes4",
          "name": "interfaceId",
          "type": "bytes4"
        }
      ],
      "name": "supportsInterface",
      "outputs": [
        {
          "internalType": "bool",
          "name": "",
          "type": "bool"
        }
      ],
      "stateMutability": "view",
      "type": "function"
    },
    {
      "inputs": [],
      "name": "symbol",
      "outputs": [
        {
          "internalType": "string",
          "name": "",
          "type": "string"
        }
      ],
      "stateMutability": "view",
      "type": "function"
    },
    {
      "inputs": [
        {
          "internalType": "uint256",
          "name": "tokenId",
          "type": "uint256"
        }
      ],
      "name": "tokenURI",
      "outputs": [
        {
          "internalType": "string",
          "name": "",
          "type": "string"
        }
      ],
      "stateMutability": "view",
      "type": "function"
    },
    {
      "inputs": [
        {
          "internalType": "address",
          "name": "from",
          "type": "address"
        },
        {
          "internalType": "address",
          "name": "to",
          "type": "address"
        },
        {
          "internalType": "uint256",
          "name": "tokenId",
          "type": "uint256"
        }
      ],
      "name": "transferFrom",
      "outputs": [],
      "stateMutability": "nonpayable",
      "type": "function"
    }
  ],
  "bytecode": "0x60806040523480156200001157600080fd5b50604080518082018252601481527f4e46545f4469676974616c5f57617272616e74790000000000000000000000006020808301918252835180850190945260058452644e4654445760d81b9084015281519192916200007491600091620000a5565b5080516200008a906001906020840190620000a5565b5050600980546001600160a01b031916331790555062000188565b828054620000b3906200014b565b90600052602060002090601f016020900481019282620000d7576000855562000122565b82601f10620000f257805160ff191683800117855562000122565b8280016001018555821562000122579182015b828111156200012257825182559160200191906001019062000105565b506200013092915062000134565b5090565b5b8082111562000130576000815560010162000135565b600181811c908216806200016057607f821691505b602082108114156200018257634e487b7160e01b600052602260045260246000fd5b50919050565b61222280620001986000396000f3fe60806040526004361061011f5760003560e01c80636352211e116100a0578063b88d4fde11610064578063b88d4fde14610320578063c87b56dd14610340578063d1a88ae514610360578063e985e9c514610375578063ef2d1746146103be57600080fd5b80636352211e1461027e57806370a082311461029e5780638e264590146102be57806395d89b41146102eb578063a22cb4651461030057600080fd5b806323b872dd116100e757806323b872dd146101e85780632f2f2d561461020857806342842e0e146102295780634437b60b14610249578063629cb2e41461025c57600080fd5b806301ffc9a71461012457806306fdde0314610159578063081812fc1461017b578063095ea7b3146101b3578063167dc8a0146101d5575b600080fd5b34801561013057600080fd5b5061014461013f366004611df0565b6103d3565b60405190151581526020015b60405180910390f35b34801561016557600080fd5b5061016e610425565b6040516101509190612006565b34801561018757600080fd5b5061019b610196366004611e89565b6104b7565b6040516001600160a01b039091168152602001610150565b3480156101bf57600080fd5b506101d36101ce366004611dc7565b6104de565b005b6101d36101e3366004611e89565b6105f9565b3480156101f457600080fd5b506101d3610203366004611cd9565b61076f565b61021b610216366004611e28565b6107a0565b604051908152602001610150565b34801561023557600080fd5b506101d3610244366004611cd9565b6107e2565b6101d3610257366004611ea1565b6107fd565b34801561026857600080fd5b506102716108c8565b6040516101509190611fa5565b34801561028a57600080fd5b5061019b610299366004611e89565b610b97565b3480156102aa57600080fd5b5061021b6102b9366004611c8d565b610bf7565b3480156102ca57600080fd5b506102de6102d9366004611e89565b610c7d565b60405161015091906120fd565b3480156102f757600080fd5b5061016e610d74565b34801561030c57600080fd5b506101d361031b366004611d8d565b610d83565b34801561032c57600080fd5b506101d361033b366004611d14565b610d8e565b34801561034c57600080fd5b5061016e61035b366004611e89565b610dc6565b34801561036c57600080fd5b506102de610ed7565b34801561038157600080fd5b50610144610390366004611ca7565b6001600160a01b03918216600090815260056020908152604080832093909416825291909152205460ff1690565b3480156103ca57600080fd5b5061021b610fda565b60006001600160e01b031982166380ac58cd60e01b148061040457506001600160e01b03198216635b5e139f60e01b145b8061041f57506301ffc9a760e01b6001600160e01b03198316145b92915050565b60606000805461043490612154565b80601f016020809104026020016040519081016040528092919081815260200182805461046090612154565b80156104ad5780601f10610482576101008083540402835291602001916104ad565b820191906000526020600020905b81548152906001019060200180831161049057829003601f168201915b5050505050905090565b60006104c282610fea565b506000908152600460205260409020546001600160a01b031690565b60006104e982610b97565b9050806001600160a01b0316836001600160a01b0316141561055c5760405162461bcd60e51b815260206004820152602160248201527f4552433732313a20617070726f76616c20746f2063757272656e74206f776e656044820152603960f91b60648201526084015b60405180910390fd5b336001600160a01b038216148061057857506105788133610390565b6105ea5760405162461bcd60e51b815260206004820152603d60248201527f4552433732313a20617070726f76652063616c6c6572206973206e6f7420746f60448201527f6b656e206f776e6572206f7220617070726f76656420666f7220616c6c0000006064820152608401610553565b6105f4838361104c565b505050565b6000818152600a60205260409020600301546106575760405162461bcd60e51b815260206004820152601c60248201527f77617272616e74792069732079657420746f20626520697373756564000000006044820152606401610553565b6009546001600160a01b031633148061068957506000818152600a60205260409020600201546001600160a01b031633145b6106d55760405162461bcd60e51b815260206004820152601d60248201527f796f75206e65656420746f206f776e20746869732077617272616e74790000006044820152606401610553565b6000818152600a602052604090206003015442116107355760405162461bcd60e51b815260206004820152601960248201527f77617272616e74792069732079657420746f20657870697265000000000000006044820152606401610553565b61073e816110ba565b6000908152600a602052604090206002810180546001600160a01b0319908116909155600190910180549091169055565b61077933826110fa565b6107955760405162461bcd60e51b815260040161055390612019565b6105f4838383611178565b60006107b0600780546001019055565b60006107bb60075490565b90506107c733826112dc565b6107d181856112f6565b6107db8184611390565b9392505050565b6105f483838360405180602001604052806000815250610d8e565b6000811161084d5760405162461bcd60e51b815260206004820181905260248201527f506c6561736520656e74657220612076616c6964206578706972792074696d656044820152606401610553565b6000828152600a60205260409020600301546108805761086d8142612110565b6000838152600a60205260409020600301555b6000828152600a6020526040902060020180546001600160a01b031916331790556108af600880546001019055565b6108ba303384611178565b6108c430836104de565b5050565b606060006108d560075490565b905060008060005b8381101561096d5733600a60006108f5846001612110565b81526020810191909152604001600020600101546001600160a01b03161480610948575033600a6000610929846001612110565b81526020810191909152604001600020600201546001600160a01b0316145b1561095b57610958600184612110565b92505b806109658161218f565b9150506108dd565b5060008267ffffffffffffffff81111561099757634e487b7160e01b600052604160045260246000fd5b6040519080825280602002602001820160405280156109d057816020015b6109bd611ac8565b8152602001906001900390816109b55790505b50905060005b84811015610b8e5733600a60006109ee846001612110565b81526020810191909152604001600020600101546001600160a01b03161480610a41575033600a6000610a22846001612110565b81526020810191909152604001600020600201546001600160a01b0316145b15610b7c576000610a53826001612110565b6000818152600a6020908152604091829020825160a0810184528154815260018201546001600160a01b039081169382019390935260028201549092169282019290925260038201546060820152600482018054939450919290918391608084019190610abf90612154565b80601f0160208091040260200160405190810160405280929190818152602001828054610aeb90612154565b8015610b385780601f10610b0d57610100808354040283529160200191610b38565b820191906000526020600020905b815481529060010190602001808311610b1b57829003601f168201915b505050505081525050848681518110610b6157634e487b7160e01b600052603260045260246000fd5b6020908102919091010152610b77600186612110565b945050505b80610b868161218f565b9150506109d6565b50949350505050565b6000818152600260205260408120546001600160a01b03168061041f5760405162461bcd60e51b8152602060048201526018602482015277115490cdcc8c4e881a5b9d985b1a59081d1bdad95b88125160421b6044820152606401610553565b60006001600160a01b038216610c615760405162461bcd60e51b815260206004820152602960248201527f4552433732313a2061646472657373207a65726f206973206e6f7420612076616044820152683634b21037bbb732b960b91b6064820152608401610553565b506001600160a01b031660009081526003602052604090205490565b610c85611ac8565b6000828152600a6020908152604091829020825160a0810184528154815260018201546001600160a01b039081169382019390935260028201549092169282019290925260038201546060820152600482018054919291608084019190610ceb90612154565b80601f0160208091040260200160405190810160405280929190818152602001828054610d1790612154565b8015610d645780601f10610d3957610100808354040283529160200191610d64565b820191906000526020600020905b815481529060010190602001808311610d4757829003601f168201915b5050505050815250509050919050565b60606001805461043490612154565b6108c4338383611470565b610d9833836110fa565b610db45760405162461bcd60e51b815260040161055390612019565b610dc08484848461153f565b50505050565b6060610dd182610fea565b60008281526006602052604081208054610dea90612154565b80601f0160208091040260200160405190810160405280929190818152602001828054610e1690612154565b8015610e635780601f10610e3857610100808354040283529160200191610e63565b820191906000526020600020905b815481529060010190602001808311610e4657829003601f168201915b505050505090506000610e8160408051602081019091526000815290565b9050805160001415610e94575092915050565b815115610ec6578082604051602001610eae929190611f39565b60405160208183030381529060405292505050919050565b610ecf84611572565b949350505050565b610edf611ac8565b6000610eea60075490565b6000818152600a6020908152604091829020825160a0810184528154815260018201546001600160a01b0390811693820193909352600282015490921692820192909252600382015460608201526004820180549394509092608084019190610f5290612154565b80601f0160208091040260200160405190810160405280929190818152602001828054610f7e90612154565b8015610fcb5780601f10610fa057610100808354040283529160200191610fcb565b820191906000526020600020905b815481529060010190602001808311610fae57829003601f168201915b50505050508152505091505090565b6000610fe560075490565b905090565b6000818152600260205260409020546001600160a01b03166110495760405162461bcd60e51b8152602060048201526018602482015277115490cdcc8c4e881a5b9d985b1a59081d1bdad95b88125160421b6044820152606401610553565b50565b600081815260046020526040902080546001600160a01b0319166001600160a01b038416908117909155819061108182610b97565b6001600160a01b03167f8c5be1e5ebec7d5bd14f71427d1e84f3dd0314c0f7b2291e5b200ac8c7c3b92560405160405180910390a45050565b6110c3816115e5565b600081815260066020526040902080546110dc90612154565b15905061104957600081815260066020526040812061104991611b09565b60008061110683610b97565b9050806001600160a01b0316846001600160a01b0316148061114d57506001600160a01b0380821660009081526005602090815260408083209388168352929052205460ff165b80610ecf5750836001600160a01b0316611166846104b7565b6001600160a01b031614949350505050565b826001600160a01b031661118b82610b97565b6001600160a01b0316146111b15760405162461bcd60e51b8152600401610553906120b8565b6001600160a01b0382166112135760405162461bcd60e51b8152602060048201526024808201527f4552433732313a207472616e7366657220746f20746865207a65726f206164646044820152637265737360e01b6064820152608401610553565b826001600160a01b031661122682610b97565b6001600160a01b03161461124c5760405162461bcd60e51b8152600401610553906120b8565b600081815260046020908152604080832080546001600160a01b03199081169091556001600160a01b0387811680865260038552838620805460001901905590871680865283862080546001019055868652600290945282852080549092168417909155905184937fddf252ad1be2c89b69c2b068fc378daa952ba7f163c4a11628f55a4df523b3ef91a4505050565b6108c482826040518060200160405280600081525061167a565b6000828152600260205260409020546001600160a01b03166113715760405162461bcd60e51b815260206004820152602e60248201527f45524337323155524953746f726167653a2055524920736574206f66206e6f6e60448201526d32bc34b9ba32b73a103a37b5b2b760911b6064820152608401610553565b600082815260066020908152604090912082516105f492840190611b43565b6040805160a0810182528381523060208083019182523383850190815260006060850181815260808601888152898352600a8552969091208551815593516001850180546001600160a01b03199081166001600160a01b03938416179091559251600286018054909416911617909155516003830155925180519293919261141e9260048501920190611b43565b5090505061142d333084611178565b817fdc30b58c9508c168f3a0ea7df59b1858e74973dd9239fa42c3f21e009ecfb79730336000856040516114649493929190611f68565b60405180910390a25050565b816001600160a01b0316836001600160a01b031614156114d25760405162461bcd60e51b815260206004820152601960248201527f4552433732313a20617070726f766520746f2063616c6c6572000000000000006044820152606401610553565b6001600160a01b03838116600081815260056020908152604080832094871680845294825291829020805460ff191686151590811790915591519182527f17307eab39ab6107e8899845ad3d59bd9653f200f220920489ca2b5937696c31910160405180910390a3505050565b61154a848484611178565b611556848484846116ad565b610dc05760405162461bcd60e51b815260040161055390612066565b606061157d82610fea565b600061159460408051602081019091526000815290565b905060008151116115b457604051806020016040528060008152506107db565b806115be846117ba565b6040516020016115cf929190611f39565b6040516020818303038152906040529392505050565b60006115f082610b97565b90506115fb82610b97565b600083815260046020908152604080832080546001600160a01b03199081169091556001600160a01b0385168085526003845282852080546000190190558785526002909352818420805490911690555192935084927fddf252ad1be2c89b69c2b068fc378daa952ba7f163c4a11628f55a4df523b3ef908390a45050565b6116848383611865565b61169160008484846116ad565b6105f45760405162461bcd60e51b815260040161055390612066565b60006001600160a01b0384163b156117af57604051630a85bd0160e11b81526001600160a01b0385169063150b7a02906116f1903390899088908890600401611f68565b602060405180830381600087803b15801561170b57600080fd5b505af192505050801561173b575060408051601f3d908101601f1916820190925261173891810190611e0c565b60015b611795573d808015611769576040519150601f19603f3d011682016040523d82523d6000602084013e61176e565b606091505b50805161178d5760405162461bcd60e51b815260040161055390612066565b805181602001fd5b6001600160e01b031916630a85bd0160e11b149050610ecf565b506001949350505050565b606060006117c7836119f0565b600101905060008167ffffffffffffffff8111156117f557634e487b7160e01b600052604160045260246000fd5b6040519080825280601f01601f19166020018201604052801561181f576020820181803683370190505b5090508181016020015b600019016f181899199a1a9b1b9c1cb0b131b232b360811b600a86061a8153600a85049450846118585761185d565b611829565b509392505050565b6001600160a01b0382166118bb5760405162461bcd60e51b815260206004820181905260248201527f4552433732313a206d696e7420746f20746865207a65726f20616464726573736044820152606401610553565b6000818152600260205260409020546001600160a01b0316156119205760405162461bcd60e51b815260206004820152601c60248201527f4552433732313a20746f6b656e20616c7265616479206d696e746564000000006044820152606401610553565b6000818152600260205260409020546001600160a01b0316156119855760405162461bcd60e51b815260206004820152601c60248201527f4552433732313a20746f6b656e20616c7265616479206d696e746564000000006044820152606401610553565b6001600160a01b038216600081815260036020908152604080832080546001019055848352600290915280822080546001600160a01b0319168417905551839291907fddf252ad1be2c89b69c2b068fc378daa952ba7f163c4a11628f55a4df523b3ef908290a45050565b60008072184f03e93ff9f4daa797ed6e38ed64bf6a1f0160401b8310611a2f5772184f03e93ff9f4daa797ed6e38ed64bf6a1f0160401b830492506040015b6d04ee2d6d415b85acef81000000008310611a5b576d04ee2d6d415b85acef8100000000830492506020015b662386f26fc100008310611a7957662386f26fc10000830492506010015b6305f5e1008310611a91576305f5e100830492506008015b6127108310611aa557612710830492506004015b60648310611ab7576064830492506002015b600a831061041f5760010192915050565b6040518060a001604052806000815260200160006001600160a01b0316815260200160006001600160a01b0316815260200160008152602001606081525090565b508054611b1590612154565b6000825580601f10611b25575050565b601f0160209004906000526020600020908101906110499190611bc7565b828054611b4f90612154565b90600052602060002090601f016020900481019282611b715760008555611bb7565b82601f10611b8a57805160ff1916838001178555611bb7565b82800160010185558215611bb7579182015b82811115611bb7578251825591602001919060010190611b9c565b50611bc3929150611bc7565b5090565b5b80821115611bc35760008155600101611bc8565b600067ffffffffffffffff80841115611bf757611bf76121c0565b604051601f8501601f19908116603f01168101908282118183101715611c1f57611c1f6121c0565b81604052809350858152868686011115611c3857600080fd5b858560208301376000602087830101525050509392505050565b80356001600160a01b0381168114611c6957600080fd5b919050565b600082601f830112611c7e578081fd5b6107db83833560208501611bdc565b600060208284031215611c9e578081fd5b6107db82611c52565b60008060408385031215611cb9578081fd5b611cc283611c52565b9150611cd060208401611c52565b90509250929050565b600080600060608486031215611ced578081fd5b611cf684611c52565b9250611d0460208501611c52565b9150604084013590509250925092565b60008060008060808587031215611d29578081fd5b611d3285611c52565b9350611d4060208601611c52565b925060408501359150606085013567ffffffffffffffff811115611d62578182fd5b8501601f81018713611d72578182fd5b611d8187823560208401611bdc565b91505092959194509250565b60008060408385031215611d9f578182fd5b611da883611c52565b915060208301358015158114611dbc578182fd5b809150509250929050565b60008060408385031215611dd9578182fd5b611de283611c52565b946020939093013593505050565b600060208284031215611e01578081fd5b81356107db816121d6565b600060208284031215611e1d578081fd5b81516107db816121d6565b60008060408385031215611e3a578182fd5b823567ffffffffffffffff80821115611e51578384fd5b611e5d86838701611c6e565b93506020850135915080821115611e72578283fd5b50611e7f85828601611c6e565b9150509250929050565b600060208284031215611e9a578081fd5b5035919050565b60008060408385031215611eb3578182fd5b50508035926020909101359150565b60008151808452611eda816020860160208601612128565b601f01601f19169290920160200192915050565b805182526000602082015160018060a01b038082166020860152806040850151166040860152505060608201516060840152608082015160a06080850152610ecf60a0850182611ec2565b60008351611f4b818460208801612128565b835190830190611f5f818360208801612128565b01949350505050565b6001600160a01b0385811682528416602082015260408101839052608060608201819052600090611f9b90830184611ec2565b9695505050505050565b6000602080830181845280855180835260408601915060408160051b8701019250838701855b82811015611ff957603f19888603018452611fe7858351611eee565b94509285019290850190600101611fcb565b5092979650505050505050565b6020815260006107db6020830184611ec2565b6020808252602d908201527f4552433732313a2063616c6c6572206973206e6f7420746f6b656e206f776e6560408201526c1c881bdc88185c1c1c9bdd9959609a1b606082015260800190565b60208082526032908201527f4552433732313a207472616e7366657220746f206e6f6e20455243373231526560408201527131b2b4bb32b91034b6b83632b6b2b73a32b960711b606082015260800190565b60208082526025908201527f4552433732313a207472616e736665722066726f6d20696e636f72726563742060408201526437bbb732b960d91b606082015260800190565b6020815260006107db6020830184611eee565b60008219821115612123576121236121aa565b500190565b60005b8381101561214357818101518382015260200161212b565b83811115610dc05750506000910152565b600181811c9082168061216857607f821691505b6020821081141561218957634e487b7160e01b600052602260045260246000fd5b50919050565b60006000198214156121a3576121a36121aa565b5060010190565b634e487b7160e01b600052601160045260246000fd5b634e487b7160e01b600052604160045260246000fd5b6001600160e01b03198116811461104957600080fdfea2646970667358221220f9954ce8e609be58d5ff0e659cf8c024508f326658d517783bfc1c015566e0bf64736f6c63430008040033",
  "linkReferences": {},
  "deployedLinkReferences": {}
}